{
  "_format": "hh-sol-artifact-1",
  "contractName": "Math",
  "sourceName": "contracts/libary/Math.sol",
  "abi": [
    {
      "inputs": [
        {
          "internalType": "uint256",
          "name": "x",
          "type": "uint256"
        },
        {
          "internalType": "uint256",
          "name": "y",
          "type": "uint256"
        }
      ],
      "name": "_min",
      "outputs": [
        {
          "internalType": "uint256",
          "name": "",
          "type": "uint256"
        }
      ],
      "stateMutability": "pure",
      "type": "function"
    },
    {
      "inputs": [
        {
          "internalType": "uint256",
          "name": "y",
          "type": "uint256"
        }
      ],
      "name": "_sqrt",
      "outputs": [
        {
          "internalType": "uint256",
          "name": "z",
          "type": "uint256"
        }
      ],
      "stateMutability": "pure",
      "type": "function"
    }
  ],
  "bytecode": "0x610304610052600b82828239805160001a6073146045577f4e487b7100000000000000000000000000000000000000000000000000000000600052600060045260246000fd5b30600052607381538281f3fe73000000000000000000000000000000000000000030146080604052600436106100405760003560e01c80636a263f0214610045578063ac023b7514610075575b600080fd5b61005f600480360381019061005a9190610174565b6100a5565b60405161006c91906101b0565b60405180910390f35b61008f600480360381019061008a91906101cb565b61011f565b60405161009c91906101b0565b60405180910390f35b6000600382111561010c57819050600060016002846100c49190610269565b6100ce919061029a565b90505b818110156101065780915060028182856100eb9190610269565b6100f5919061029a565b6100ff9190610269565b90506100d1565b5061011a565b6000821461011957600190505b5b919050565b60008183111561012f5781610131565b825b905092915050565b600080fd5b6000819050919050565b6101518161013e565b811461015c57600080fd5b50565b60008135905061016e81610148565b92915050565b60006020828403121561018a57610189610139565b5b60006101988482850161015f565b91505092915050565b6101aa8161013e565b82525050565b60006020820190506101c560008301846101a1565b92915050565b600080604083850312156101e2576101e1610139565b5b60006101f08582860161015f565b92505060206102018582860161015f565b9150509250929050565b7f4e487b7100000000000000000000000000000000000000000000000000000000600052601260045260246000fd5b7f4e487b7100000000000000000000000000000000000000000000000000000000600052601160045260246000fd5b60006102748261013e565b915061027f8361013e565b92508261028f5761028e61020b565b5b828204905092915050565b60006102a58261013e565b91506102b08361013e565b92508282019050808211156102c8576102c761023a565b5b9291505056fea26469706673582212208046608cd08a0d7366a06a1de4b0f1e9d03697ad05d188b1490d7ffd9468294864736f6c634300081c0033",
  "linkReferences": {},
  "deployedLinkReferences": {}
}