{
  "_format": "hh-sol-artifact-1",
  "contractName": "Dex",
  "sourceName": "contracts/Dex.sol",
  "abi": [
    {
      "inputs": [
        {
          "internalType": "address",
          "name": "_token0",
          "type": "address"
        },
        {
          "internalType": "address",
          "name": "_token1",
          "type": "address"
        }
      ],
      "stateMutability": "nonpayable",
      "type": "constructor"
    },
    {
      "inputs": [],
      "name": "ReentrancyGuardReentrantCall",
      "type": "error"
    },
    {
      "inputs": [
        {
          "internalType": "address",
          "name": "_token0",
          "type": "address"
        },
        {
          "internalType": "address",
          "name": "_token1",
          "type": "address"
        },
        {
          "internalType": "uint256",
          "name": "_amount0",
          "type": "uint256"
        },
        {
          "internalType": "uint256",
          "name": "_amount1",
          "type": "uint256"
        }
      ],
      "name": "_initializer",
      "outputs": [],
      "stateMutability": "nonpayable",
      "type": "function"
    },
    {
      "inputs": [
        {
          "internalType": "uint256",
          "name": "_amount0",
          "type": "uint256"
        },
        {
          "internalType": "uint256",
          "name": "_amount1",
          "type": "uint256"
        }
      ],
      "name": "addLiquidity",
      "outputs": [
        {
          "internalType": "uint256",
          "name": "shares",
          "type": "uint256"
        }
      ],
      "stateMutability": "nonpayable",
      "type": "function"
    },
    {
      "inputs": [
        {
          "internalType": "address",
          "name": "",
          "type": "address"
        }
      ],
      "name": "balanceOf",
      "outputs": [
        {
          "internalType": "uint256",
          "name": "",
          "type": "uint256"
        }
      ],
      "stateMutability": "view",
      "type": "function"
    },
    {
      "inputs": [
        {
          "internalType": "uint256",
          "name": "_amountIn",
          "type": "uint256"
        },
        {
          "internalType": "uint256",
          "name": "_reserveIn",
          "type": "uint256"
        },
        {
          "internalType": "uint256",
          "name": "_reserveOut",
          "type": "uint256"
        }
      ],
      "name": "getAmountOut",
      "outputs": [
        {
          "internalType": "uint256",
          "name": "_amountOut",
          "type": "uint256"
        }
      ],
      "stateMutability": "pure",
      "type": "function"
    },
    {
      "inputs": [
        {
          "internalType": "address",
          "name": "_token",
          "type": "address"
        }
      ],
      "name": "getReserve",
      "outputs": [
        {
          "internalType": "uint256",
          "name": "",
          "type": "uint256"
        }
      ],
      "stateMutability": "view",
      "type": "function"
    },
    {
      "inputs": [
        {
          "internalType": "address",
          "name": "_token",
          "type": "address"
        },
        {
          "internalType": "address",
          "name": "_user",
          "type": "address"
        }
      ],
      "name": "getUserBalance",
      "outputs": [
        {
          "internalType": "uint256",
          "name": "",
          "type": "uint256"
        }
      ],
      "stateMutability": "view",
      "type": "function"
    },
    {
      "inputs": [],
      "name": "initialized",
      "outputs": [
        {
          "internalType": "bool",
          "name": "",
          "type": "bool"
        }
      ],
      "stateMutability": "view",
      "type": "function"
    },
    {
      "inputs": [
        {
          "internalType": "uint256",
          "name": "_shares",
          "type": "uint256"
        }
      ],
      "name": "removeLiquidity",
      "outputs": [
        {
          "internalType": "uint256",
          "name": "_amount0",
          "type": "uint256"
        },
        {
          "internalType": "uint256",
          "name": "_amount1",
          "type": "uint256"
        }
      ],
      "stateMutability": "nonpayable",
      "type": "function"
    },
    {
      "inputs": [
        {
          "internalType": "address",
          "name": "_tokenIn",
          "type": "address"
        },
        {
          "internalType": "address",
          "name": "_tokenOut",
          "type": "address"
        },
        {
          "internalType": "uint256",
          "name": "_amountIn",
          "type": "uint256"
        }
      ],
      "name": "swap",
      "outputs": [
        {
          "internalType": "uint256",
          "name": "_amountOut",
          "type": "uint256"
        }
      ],
      "stateMutability": "nonpayable",
      "type": "function"
    },
    {
      "inputs": [],
      "name": "token0",
      "outputs": [
        {
          "internalType": "contract IERC20",
          "name": "",
          "type": "address"
        }
      ],
      "stateMutability": "view",
      "type": "function"
    },
    {
      "inputs": [],
      "name": "token1",
      "outputs": [
        {
          "internalType": "contract IERC20",
          "name": "",
          "type": "address"
        }
      ],
      "stateMutability": "view",
      "type": "function"
    },
    {
      "inputs": [],
      "name": "totalSupply",
      "outputs": [
        {
          "internalType": "uint256",
          "name": "",
          "type": "uint256"
        }
      ],
      "stateMutability": "view",
      "type": "function"
    }
  ],
  "bytecode": "0x60c060405234801561001057600080fd5b506040516121d03803806121d083398181016040528101906100329190610127565b60016000819055508173ffffffffffffffffffffffffffffffffffffffff1660808173ffffffffffffffffffffffffffffffffffffffff16815250508073ffffffffffffffffffffffffffffffffffffffff1660a08173ffffffffffffffffffffffffffffffffffffffff16815250506000600360006101000a81548160ff0219169083151502179055505050610167565b600080fd5b600073ffffffffffffffffffffffffffffffffffffffff82169050919050565b60006100f4826100c9565b9050919050565b610104816100e9565b811461010f57600080fd5b50565b600081519050610121816100fb565b92915050565b6000806040838503121561013e5761013d6100c4565b5b600061014c85828601610112565b925050602061015d85828601610112565b9150509250929050565b60805160a051611ff06101e0600039600081816106e9015281816108b301528181610a4a01528181610b8b01528181610ead01528181610f280152610fd401526000818161052a0152818161064b01528181610814015281816109a901528181610aed01528181610ed30152610f7f0152611ff06000f3fe608060405234801561001057600080fd5b50600436106100b45760003560e01c806370a082311161007157806370a082311461018f5780639c8f9f23146101bf5780639cd441da146101f0578063c9a396e914610220578063d21220a714610250578063df791e501461026e576100b4565b806302065c97146100b9578063054d50d4146100d55780630dfe168114610105578063158ef93e1461012357806318160ddd146101415780636805d6ad1461015f575b600080fd5b6100d360048036038101906100ce91906114b2565b61029e565b005b6100ef60048036038101906100ea9190611519565b6104dc565b6040516100fc919061157b565b60405180910390f35b61010d610528565b60405161011a91906115f5565b60405180910390f35b61012b61054c565b604051610138919061162b565b60405180910390f35b61014961055f565b604051610156919061157b565b60405180910390f35b61017960048036038101906101749190611646565b610565565b604051610186919061157b565b60405180910390f35b6101a960048036038101906101a49190611686565b6105e9565b6040516101b6919061157b565b60405180910390f35b6101d960048036038101906101d491906116b3565b610601565b6040516101e79291906116e0565b60405180910390f35b61020a60048036038101906102059190611709565b610957565b604051610217919061157b565b60405180910390f35b61023a60048036038101906102359190611686565b610e28565b604051610247919061157b565b60405180910390f35b610258610eab565b60405161026591906115f5565b60405180910390f35b61028860048036038101906102839190611749565b610ecf565b604051610295919061157b565b60405180910390f35b600360009054906101000a900460ff16156102ee576040517f08c379a00000000000000000000000000000000000000000000000000000000081526004016102e5906117f9565b60405180910390fd5b6000821180156102fe5750600081115b61033d576040517f08c379a000000000000000000000000000000000000000000000000000000000815260040161033490611865565b60405180910390fd5b8373ffffffffffffffffffffffffffffffffffffffff166323b872dd3330856040518463ffffffff1660e01b815260040161037a93929190611894565b6020604051808303816000875af1158015610399573d6000803e3d6000fd5b505050506040513d601f19601f820116820180604052508101906103bd91906118f7565b6103fc576040517f08c379a00000000000000000000000000000000000000000000000000000000081526004016103f390611970565b60405180910390fd5b8273ffffffffffffffffffffffffffffffffffffffff166323b872dd3330846040518463ffffffff1660e01b815260040161043993929190611894565b6020604051808303816000875af1158015610458573d6000803e3d6000fd5b505050506040513d601f19601f8201168201806040525081019061047c91906118f7565b6104bb576040517f08c379a00000000000000000000000000000000000000000000000000000000081526004016104b2906119dc565b60405180910390fd5b6001600360006101000a81548160ff02191690831515021790555050505050565b6000806103e86103e5866104f09190611a2b565b6104fa9190611a9c565b905080846105089190611acd565b81846105149190611a2b565b61051e9190611a9c565b9150509392505050565b7f000000000000000000000000000000000000000000000000000000000000000081565b600360009054906101000a900460ff1681565b60015481565b60008273ffffffffffffffffffffffffffffffffffffffff166370a08231836040518263ffffffff1660e01b81526004016105a09190611b01565b602060405180830381865afa1580156105bd573d6000803e3d6000fd5b505050506040513d601f19601f820116820180604052508101906105e19190611b31565b905092915050565b60026020528060005260406000206000915090505481565b60008060008311610647576040517f08c379a000000000000000000000000000000000000000000000000000000000815260040161063e90611bd0565b60405180910390fd5b60007f000000000000000000000000000000000000000000000000000000000000000073ffffffffffffffffffffffffffffffffffffffff166370a08231306040518263ffffffff1660e01b81526004016106a29190611b01565b602060405180830381865afa1580156106bf573d6000803e3d6000fd5b505050506040513d601f19601f820116820180604052508101906106e39190611b31565b905060007f000000000000000000000000000000000000000000000000000000000000000073ffffffffffffffffffffffffffffffffffffffff166370a08231306040518263ffffffff1660e01b81526004016107409190611b01565b602060405180830381865afa15801561075d573d6000803e3d6000fd5b505050506040513d601f19601f820116820180604052508101906107819190611b31565b905060015485836107929190611a2b565b61079c9190611a9c565b935060015485826107ad9190611a2b565b6107b79190611a9c565b92506000841180156107c95750600083115b610808576040517f08c379a00000000000000000000000000000000000000000000000000000000081526004016107ff90611c3c565b60405180910390fd5b6108123386611333565b7f000000000000000000000000000000000000000000000000000000000000000073ffffffffffffffffffffffffffffffffffffffff1663a9059cbb33866040518363ffffffff1660e01b815260040161086d929190611c5c565b6020604051808303816000875af115801561088c573d6000803e3d6000fd5b505050506040513d601f19601f820116820180604052508101906108b091906118f7565b507f000000000000000000000000000000000000000000000000000000000000000073ffffffffffffffffffffffffffffffffffffffff1663a9059cbb33856040518363ffffffff1660e01b815260040161090c929190611c5c565b6020604051808303816000875af115801561092b573d6000803e3d6000fd5b505050506040513d601f19601f8201168201806040525081019061094f91906118f7565b505050915091565b600080831180156109685750600082115b6109a7576040517f08c379a000000000000000000000000000000000000000000000000000000000815260040161099e90611bd0565b60405180910390fd5b7f000000000000000000000000000000000000000000000000000000000000000073ffffffffffffffffffffffffffffffffffffffff166323b872dd3330866040518463ffffffff1660e01b8152600401610a0493929190611894565b6020604051808303816000875af1158015610a23573d6000803e3d6000fd5b505050506040513d601f19601f82011682018060405250810190610a4791906118f7565b507f000000000000000000000000000000000000000000000000000000000000000073ffffffffffffffffffffffffffffffffffffffff166323b872dd3330856040518463ffffffff1660e01b8152600401610aa593929190611894565b6020604051808303816000875af1158015610ac4573d6000803e3d6000fd5b505050506040513d601f19601f82011682018060405250810190610ae891906118f7565b5060007f000000000000000000000000000000000000000000000000000000000000000073ffffffffffffffffffffffffffffffffffffffff166370a08231306040518263ffffffff1660e01b8152600401610b449190611b01565b602060405180830381865afa158015610b61573d6000803e3d6000fd5b505050506040513d601f19601f82011682018060405250810190610b859190611b31565b905060007f000000000000000000000000000000000000000000000000000000000000000073ffffffffffffffffffffffffffffffffffffffff166370a08231306040518263ffffffff1660e01b8152600401610be29190611b01565b602060405180830381865afa158015610bff573d6000803e3d6000fd5b505050506040513d601f19601f82011682018060405250810190610c239190611b31565b90506000821180610c345750600081115b15610c92578481610c459190611a2b565b8483610c519190611a2b565b14610c91576040517f08c379a0000000000000000000000000000000000000000000000000000000008152600401610c8890611cd1565b60405180910390fd5b5b600060015403610d265773__$e43956f7cbb09f2f271113f2436f8cd528$__636a263f028587610cc29190611a2b565b6040518263ffffffff1660e01b8152600401610cde9190611d00565b602060405180830381865af4158015610cfb573d6000803e3d6000fd5b505050506040513d601f19601f82011682018060405250810190610d1f9190611b31565b9250610dd3565b73__$e43956f7cbb09f2f271113f2436f8cd528$__63ac023b758360015488610d4f9190611a2b565b610d599190611a9c565b8360015488610d689190611a2b565b610d729190611a9c565b6040518363ffffffff1660e01b8152600401610d8f929190611d1b565b602060405180830381865af4158015610dac573d6000803e3d6000fd5b505050506040513d601f19601f82011682018060405250810190610dd09190611b31565b92505b60008311610e16576040517f08c379a0000000000000000000000000000000000000000000000000000000008152600401610e0d90611d90565b60405180910390fd5b610e2033846113a6565b505092915050565b60008173ffffffffffffffffffffffffffffffffffffffff166370a08231306040518263ffffffff1660e01b8152600401610e639190611b01565b602060405180830381865afa158015610e80573d6000803e3d6000fd5b505050506040513d601f19601f82011682018060405250810190610ea49190611b31565b9050919050565b7f000000000000000000000000000000000000000000000000000000000000000081565b60007f000000000000000000000000000000000000000000000000000000000000000073ffffffffffffffffffffffffffffffffffffffff168473ffffffffffffffffffffffffffffffffffffffff161480610f7657507f000000000000000000000000000000000000000000000000000000000000000073ffffffffffffffffffffffffffffffffffffffff168473ffffffffffffffffffffffffffffffffffffffff16145b801561102357507f000000000000000000000000000000000000000000000000000000000000000073ffffffffffffffffffffffffffffffffffffffff168373ffffffffffffffffffffffffffffffffffffffff16148061102257507f000000000000000000000000000000000000000000000000000000000000000073ffffffffffffffffffffffffffffffffffffffff168373ffffffffffffffffffffffffffffffffffffffff16145b5b611062576040517f08c379a000000000000000000000000000000000000000000000000000000000815260040161105990611dfc565b60405180910390fd5b600082116110a5576040517f08c379a000000000000000000000000000000000000000000000000000000000815260040161109c90611e8e565b60405180910390fd5b60008473ffffffffffffffffffffffffffffffffffffffff166370a08231306040518263ffffffff1660e01b81526004016110e09190611b01565b602060405180830381865afa1580156110fd573d6000803e3d6000fd5b505050506040513d601f19601f820116820180604052508101906111219190611b31565b905060008473ffffffffffffffffffffffffffffffffffffffff166370a08231306040518263ffffffff1660e01b815260040161115e9190611b01565b602060405180830381865afa15801561117b573d6000803e3d6000fd5b505050506040513d601f19601f8201168201806040525081019061119f9190611b31565b90508573ffffffffffffffffffffffffffffffffffffffff166323b872dd3330876040518463ffffffff1660e01b81526004016111de93929190611894565b6020604051808303816000875af11580156111fd573d6000803e3d6000fd5b505050506040513d601f19601f8201168201806040525081019061122191906118f7565b611260576040517f08c379a000000000000000000000000000000000000000000000000000000000815260040161125790611efa565b60405180910390fd5b61126b8483836104dc565b92508473ffffffffffffffffffffffffffffffffffffffff1663a9059cbb33856040518363ffffffff1660e01b81526004016112a8929190611c5c565b6020604051808303816000875af11580156112c7573d6000803e3d6000fd5b505050506040513d601f19601f820116820180604052508101906112eb91906118f7565b61132a576040517f08c379a000000000000000000000000000000000000000000000000000000000815260040161132190611f66565b60405180910390fd5b50509392505050565b80600260008473ffffffffffffffffffffffffffffffffffffffff1673ffffffffffffffffffffffffffffffffffffffff16815260200190815260200160002060008282546113829190611f86565b92505081905550806001600082825461139b9190611f86565b925050819055505050565b80600260008473ffffffffffffffffffffffffffffffffffffffff1673ffffffffffffffffffffffffffffffffffffffff16815260200190815260200160002060008282546113f59190611acd565b92505081905550806001600082825461140e9190611acd565b925050819055505050565b600080fd5b600073ffffffffffffffffffffffffffffffffffffffff82169050919050565b60006114498261141e565b9050919050565b6114598161143e565b811461146457600080fd5b50565b60008135905061147681611450565b92915050565b6000819050919050565b61148f8161147c565b811461149a57600080fd5b50565b6000813590506114ac81611486565b92915050565b600080600080608085870312156114cc576114cb611419565b5b60006114da87828801611467565b94505060206114eb87828801611467565b93505060406114fc8782880161149d565b925050606061150d8782880161149d565b91505092959194509250565b60008060006060848603121561153257611531611419565b5b60006115408682870161149d565b93505060206115518682870161149d565b92505060406115628682870161149d565b9150509250925092565b6115758161147c565b82525050565b6000602082019050611590600083018461156c565b92915050565b6000819050919050565b60006115bb6115b66115b18461141e565b611596565b61141e565b9050919050565b60006115cd826115a0565b9050919050565b60006115df826115c2565b9050919050565b6115ef816115d4565b82525050565b600060208201905061160a60008301846115e6565b92915050565b60008115159050919050565b61162581611610565b82525050565b6000602082019050611640600083018461161c565b92915050565b6000806040838503121561165d5761165c611419565b5b600061166b85828601611467565b925050602061167c85828601611467565b9150509250929050565b60006020828403121561169c5761169b611419565b5b60006116aa84828501611467565b91505092915050565b6000602082840312156116c9576116c8611419565b5b60006116d78482850161149d565b91505092915050565b60006040820190506116f5600083018561156c565b611702602083018461156c565b9392505050565b600080604083850312156117205761171f611419565b5b600061172e8582860161149d565b925050602061173f8582860161149d565b9150509250929050565b60008060006060848603121561176257611761611419565b5b600061177086828701611467565b935050602061178186828701611467565b92505060406117928682870161149d565b9150509250925092565b600082825260208201905092915050565b7f4445583a20416c726561647920696e697469616c697a65640000000000000000600082015250565b60006117e360188361179c565b91506117ee826117ad565b602082019050919050565b60006020820190508181036000830152611812816117d6565b9050919050565b7f4445583a204e6f7420656e6f75676820746f6b656e7300000000000000000000600082015250565b600061184f60168361179c565b915061185a82611819565b602082019050919050565b6000602082019050818103600083015261187e81611842565b9050919050565b61188e8161143e565b82525050565b60006060820190506118a96000830186611885565b6118b66020830185611885565b6118c3604083018461156c565b949350505050565b6118d481611610565b81146118df57600080fd5b50565b6000815190506118f1816118cb565b92915050565b60006020828403121561190d5761190c611419565b5b600061191b848285016118e2565b91505092915050565b7f4445583a20546f6b656e30207472616e73666572206661696c65640000000000600082015250565b600061195a601b8361179c565b915061196582611924565b602082019050919050565b600060208201905081810360008301526119898161194d565b9050919050565b7f4445583a20546f6b656e31207472616e73666572206661696c65640000000000600082015250565b60006119c6601b8361179c565b91506119d182611990565b602082019050919050565b600060208201905081810360008301526119f5816119b9565b9050919050565b7f4e487b7100000000000000000000000000000000000000000000000000000000600052601160045260246000fd5b6000611a368261147c565b9150611a418361147c565b9250828202611a4f8161147c565b91508282048414831517611a6657611a656119fc565b5b5092915050565b7f4e487b7100000000000000000000000000000000000000000000000000000000600052601260045260246000fd5b6000611aa78261147c565b9150611ab28361147c565b925082611ac257611ac1611a6d565b5b828204905092915050565b6000611ad88261147c565b9150611ae38361147c565b9250828201905080821115611afb57611afa6119fc565b5b92915050565b6000602082019050611b166000830184611885565b92915050565b600081519050611b2b81611486565b92915050565b600060208284031215611b4757611b46611419565b5b6000611b5584828501611b1c565b91505092915050565b7f416d6f756e742073686f756c642062652067726561746572207468616e207a6560008201527f726f000000000000000000000000000000000000000000000000000000000000602082015250565b6000611bba60228361179c565b9150611bc582611b5e565b604082019050919050565b60006020820190508181036000830152611be981611bad565b9050919050565b7f53686f756c642062652067726561746572207468616e207a65726f0000000000600082015250565b6000611c26601b8361179c565b9150611c3182611bf0565b602082019050919050565b60006020820190508181036000830152611c5581611c19565b9050919050565b6000604082019050611c716000830185611885565b611c7e602083018461156c565b9392505050565b7f20782f7920213d64783f64790000000000000000000000000000000000000000600082015250565b6000611cbb600c8361179c565b9150611cc682611c85565b602082019050919050565b60006020820190508181036000830152611cea81611cae565b9050919050565b611cfa8161147c565b82525050565b6000602082019050611d156000830184611cf1565b92915050565b6000604082019050611d306000830185611cf1565b611d3d6020830184611cf1565b9392505050565b7f7368617265732063616e6e6f74206265207a65726f0000000000000000000000600082015250565b6000611d7a60158361179c565b9150611d8582611d44565b602082019050919050565b60006020820190508181036000830152611da981611d6d565b9050919050565b7f546f6b656e206973206e6f7420737570706f7274656400000000000000000000600082015250565b6000611de660168361179c565b9150611df182611db0565b602082019050919050565b60006020820190508181036000830152611e1581611dd9565b9050919050565b7f56616c75652073686f756c642062652067726561746572207468616e207a657260008201527f6f00000000000000000000000000000000000000000000000000000000000000602082015250565b6000611e7860218361179c565b9150611e8382611e1c565b604082019050919050565b60006020820190508181036000830152611ea781611e6b565b9050919050565b7f5472616e7366657246726f6d206661696c656400000000000000000000000000600082015250565b6000611ee460138361179c565b9150611eef82611eae565b602082019050919050565b60006020820190508181036000830152611f1381611ed7565b9050919050565b7f5472616e73666572206661696c65640000000000000000000000000000000000600082015250565b6000611f50600f8361179c565b9150611f5b82611f1a565b602082019050919050565b60006020820190508181036000830152611f7f81611f43565b9050919050565b6000611f918261147c565b9150611f9c8361147c565b9250828203905081811115611fb457611fb36119fc565b5b9291505056fea264697066735822122023cd452c0ac50a0f7bfdc859ca0b8067ad609392fe38f7eaa5beaf7deccc654764736f6c634300081c0033",
  "linkReferences": {
    "contracts/libary/Math.sol": {
      "Math": [
        {
          "length": 20,
          "start": 3710
        },
        {
          "length": 20,
          "start": 3848
        }
      ]
    }
  },
  "deployedLinkReferences": {
    "contracts/libary/Math.sol": {
      "Math": [
        {
          "length": 20,
          "start": 3230
        },
        {
          "length": 20,
          "start": 3368
        }
      ]
    }
  }
}